:020000040800F2
:1000000030070020CD010008F7030008EF030008C7
:10001000F3030008750200086308000800000000F0
:100020000000000000000000000000002D06000895
:100030007902000800000000F90300081907000811
:10004000E7010008E7010008E7010008E7010008F0
:10005000E7010008E7010008E7010008E7010008E0
:10006000E7010008E7010008E7010008E7010008D0
:10007000E7010008E7010008E7010008E7010008C0
:10008000E7010008E7010008E7010008E7010008B0
:10009000E7010008E7010008E7010008E7010008A0
:1000A000E7010008E7010008E7010008E701000890
:1000B000E7010008E7010008E7010008E701000880
:1000C000E7010008E7010008E7010008E701000870
:1000D000E70100087D070008E7010008E7010008C4
:1000E000E7010008E7010008E7010008E701000850
:1000F000E7010008E7010008E7010008E701000840
:10010000E7010008E7010008E7010008E70100082F
:10011000E7010008E7010008E7010008E70100081F
:10012000E7010008E7010008E7010008E70100080F
:1001300000F002F800F03AF80AA090E8000C8244BF
:100140008344AAF10107DA4501D100F02FF8AFF29C
:10015000090EBAE80F0013F0010F18BFFB1A43F0A5
:10016000010318473007000050070000103A24BF71
:1001700078C878C1FAD8520724BF30C830C144BF0C
:1001800004680C607047000000230024002500264E
:10019000103A28BF78C1FBD8520728BF30C148BFEA
:1001A0000B6070471FB51FBD10B510BD00F033F8D0
:1001B0001146FFF7F7FF00F059FB00F051F803B4C8
:1001C000FFF7F2FF03BC00F04EFB00000948804738
:1001D00009480047FEE7FEE7FEE7FEE7FEE7FEE729
:1001E000FEE7FEE7FEE7FEE704480549054A064B41
:1001F000704700001D070008310100083001002091
:100200003007002030030020300300207047704783
:10021000704770477047754600F028F8AE460500F5
:100220006946534620F00700854618B020B5FFF711
:10023000DBFFBDE820404FF000064FF000074FF015
:1002400000084FF0000B21F00701AC46ACE8C009F4
:10025000ACE8C009ACE8C009ACE8C0098D467047FD
:100260000446AFF300802046FFF7A9FF004870471F
:10027000D000002000BFFEE7704700000549096874
:1002800021F01001034A1160114609680143116011
:10029000704700000020024001460020034A106819
:1002A00000F0380008431060704700000020024052
:1002B00008B57020ADF8000003208DF80200102072
:1002C0008DF803006946024800F004F808BD0000FC
:1002D000000801402DE9F0410246002500260020DB
:1002E00000230024002791F803C00CF00F0591F8BB
:1002F00003C00CF0100CBCF1000F03D091F802C049
:100300004CEA050591F800C0BCF1000F31D014682B
:1003100000202BE04FF0010C0CFA00F3B1F800C004
:100320000CEA03069E4220D183004FF00F0C0CFA1A
:1003300003F7BC4305FA03FC4CEA040491F803C03C
:10034000BCF1280F06D14FF0010C0CFA00FCC2F8EA
:1003500014C00AE091F803C0BCF1480F05D14FF07A
:10036000010C0CFA00FCC2F810C0401C0828D1D3C4
:100370001460B1F800C0BCF1FF0F34DD54680020F8
:100380002EE000F1080C4FF0010808FA0CF3B1F868
:1003900000C00CEA03069E4221D183004FF00F0CEF
:1003A0000CFA03F7BC4305FA03FC4CEA040491F889
:1003B00003C0BCF1280F05D100F1080C08FA0CF8B5
:1003C000C2F8148091F803C0BCF1480F07D100F1C6
:1003D000080C4FF0010808FA0CF8C2F81080401C15
:1003E0000828CED35460BDE8F0810161704700BF9A
:1003F000FEE700BFFEE770477047000029B1064ADC
:1004000092690243044B9A6104E0034A9269824371
:10041000014B9A61704700000010024010B500F0D7
:1004200033F84FF4803000F087F800F0E3F804462A
:10043000012C24D1002000F073F8002000F0AEF869
:10044000A00200F09FF80220FFF726FF1020FFF720
:1004500015FF4FF4E011200400F0B2F8012000F085
:10046000A9F800BF392000F035F80028FAD00220A2
:1004700000F0B4F800BF00F04BF80828FBD10121D0
:100480000420FFF7BBFF10BD0F48006840F00100DB
:100490000D490860084640680C4908400A49486010
:1004A000084600680A49084007490860084600688D
:1004B00020F4802008600846406820F4FE00486070
:1004C0004FF41F0088607047001002400000FFF8E2
:1004D000FFFFF6FE10B501460022002300204A115E
:1004E000012A02D1094C236806E0022A02D1074CF6
:1004F000236A01E0054C636A01F01F020124944065
:100500001C400CB1012000E0002010BD0010024092
:100510000248406800F00C007047000000100240E4
:1005200001460020034A506820F0F0000843506064
:1005300070470000001002401149096821F4803121
:100540000F4A11601146096821F480211160B0F54D
:10055000803F03D0B0F5802F0ED106E0084909682E
:1005600041F48031064A116007E00549096841F409
:10057000A021034A116000E000BF00BF70470000E7
:100580000010024001460020034A506820F4E06059
:1005900008435060704700000010024001460020F0
:1005A000034A506820F4605040EAC1005060704730
:1005B00000100240014908667047000000004242F6
:1005C00002460020044B586820F47C1042EA0103E4
:1005D0001843014B5860704700100240014600204C
:1005E000034A506820F00300084350607047000041
:1005F0000010024038B5002000900024002500BF04
:100600003120FFF767FF05460098401C00900098D6
:10061000B0F5A06F01D0002DF2D03120FFF75AFFC6
:1006200008B1012400E00024204638BD704710B511
:1006300000F002F810BD00000CB500200190009001
:100640003348006840F480303149086000BF3048CA
:10065000006800F4003000900198401C0190009860
:1006600018B90198B0F5A06FF1D12948006800F4DD
:10067000003010B10120009001E0002000900098AF
:10068000012843D12348006840F010002149086048
:100690000846006820F0030008600846006840F043
:1006A000020008601A4840681949486008464068D6
:1006B00048600846406840F48060486008464068EA
:1006C00020F47C1048600846406840F4E810486018
:1006D0000846006840F08070086000BF0C48006861
:1006E00000F000700028F9D00948406820F00300AD
:1006F000074948600846406840F00200486000BF73
:100700000348406800F00C000828F9D10CBD000037
:1007100000100240002002407047000010B513484E
:10072000006840F00100114908600846406810491F
:1007300008400E494860084600680E4908400B49C9
:1007400008600846006820F4802008600846406879
:1007500020F4FE0048604FF41F008860FFF767FF39
:100760004FF000600449086010BD00000010024016
:100770000000FFF8FFFFF6FE08ED00E010B540F2C4
:1007800025511D4800F03EF810B31B4800F064F8F6
:10079000C4B21A48008800F40040C8B9174800885D
:1007A00000F4804060B10A2C03D000201349088077
:1007B00020E01248008840F400401049088019E009
:1007C0000D2C06D10D48008840F480400B4908806C
:1007D00010E00A480088C0F30D0009490C5407488E
:1007E0000088401C0549088008460088C72801DDAC
:1007F0000020088010BD00000038014004000020E7
:100800000800002070B502460024002300250020C7
:1008100040F66A16B14200D100BFC1F3421501F0A3
:100820001F03012606FA03F3012D02D196893340F6
:1008300006E0022D02D1168A334001E0968A334049
:100840000C12012606FA04F41688344013B10CB1D8
:10085000012000E0002070BD01468888C0F3080038
:10086000704700BFFEE7014600BF7047FFF7D6FDA7
:10087000FFF71EFD10210648FFF7B7FD20210448B1
:10088000FFF7B3FD40210248FFF7AFFD00BFFEE7D1
:1008900000080140B4080008000000200800000023
:1008A0006C010008BC0800080800002028070000B0
:0C08B000880100080000000000000000AB
:0400000508000131BD
:00000001FF
